{
  "contracts/JumpCrossV2.sol": {
    "JumpCrossV2": {
      "abi": [
        {
          "inputs": [
            {
              "internalType": "address",
              "name": "_jcc",
              "type": "address"
            }
          ],
          "stateMutability": "nonpayable",
          "type": "constructor"
        },
        {
          "inputs": [],
          "name": "InvalidAgent",
          "type": "error"
        },
        {
          "inputs": [],
          "name": "InvalidParam",
          "type": "error"
        },
        {
          "inputs": [],
          "name": "InvalidProtocolFee",
          "type": "error"
        },
        {
          "inputs": [
            {
              "internalType": "address",
              "name": "owner",
              "type": "address"
            }
          ],
          "name": "OwnableInvalidOwner",
          "type": "error"
        },
        {
          "inputs": [
            {
              "internalType": "address",
              "name": "account",
              "type": "address"
            }
          ],
          "name": "OwnableUnauthorizedAccount",
          "type": "error"
        },
        {
          "inputs": [],
          "name": "ReentrancyGuardReentrantCall",
          "type": "error"
        },
        {
          "anonymous": false,
          "inputs": [
            {
              "indexed": true,
              "internalType": "address",
              "name": "from",
              "type": "address"
            },
            {
              "indexed": true,
              "internalType": "string",
              "name": "level",
              "type": "string"
            },
            {
              "indexed": false,
              "internalType": "string",
              "name": "paymentId",
              "type": "string"
            },
            {
              "indexed": false,
              "internalType": "uint256",
              "name": "amount",
              "type": "uint256"
            },
            {
              "indexed": false,
              "internalType": "uint256",
              "name": "includeFee",
              "type": "uint256"
            }
          ],
          "name": "Build",
          "type": "event"
        },
        {
          "anonymous": false,
          "inputs": [
            {
              "indexed": true,
              "internalType": "address",
              "name": "from",
              "type": "address"
            },
            {
              "indexed": true,
              "internalType": "string",
              "name": "mapId",
              "type": "string"
            },
            {
              "indexed": false,
              "internalType": "string",
              "name": "paymentId",
              "type": "string"
            },
            {
              "indexed": false,
              "internalType": "uint8",
              "name": "mode",
              "type": "uint8"
            },
            {
              "indexed": false,
              "internalType": "uint256",
              "name": "amount",
              "type": "uint256"
            },
            {
              "indexed": false,
              "internalType": "uint256",
              "name": "includeFee",
              "type": "uint256"
            }
          ],
          "name": "Create",
          "type": "event"
        },
        {
          "anonymous": false,
          "inputs": [
            {
              "indexed": true,
              "internalType": "string",
              "name": "mapId",
              "type": "string"
            },
            {
              "indexed": true,
              "internalType": "address",
              "name": "winner",
              "type": "address"
            },
            {
              "indexed": false,
              "internalType": "uint256",
              "name": "distribution",
              "type": "uint256"
            }
          ],
          "name": "Distribute",
          "type": "event"
        },
        {
          "anonymous": false,
          "inputs": [
            {
              "indexed": true,
              "internalType": "address",
              "name": "previousOwner",
              "type": "address"
            },
            {
              "indexed": true,
              "internalType": "address",
              "name": "newOwner",
              "type": "address"
            }
          ],
          "name": "OwnershipTransferred",
          "type": "event"
        },
        {
          "anonymous": false,
          "inputs": [
            {
              "indexed": true,
              "internalType": "address",
              "name": "from",
              "type": "address"
            },
            {
              "indexed": true,
              "internalType": "string",
              "name": "mapId",
              "type": "string"
            },
            {
              "indexed": false,
              "internalType": "string",
              "name": "paymentId",
              "type": "string"
            },
            {
              "indexed": false,
              "internalType": "uint256",
              "name": "amount",
              "type": "uint256"
            },
            {
              "indexed": false,
              "internalType": "uint256",
              "name": "includeFee",
              "type": "uint256"
            }
          ],
          "name": "Ready",
          "type": "event"
        },
        {
          "anonymous": false,
          "inputs": [
            {
              "indexed": true,
              "internalType": "string",
              "name": "mapId",
              "type": "string"
            },
            {
              "indexed": true,
              "internalType": "address",
              "name": "Builder",
              "type": "address"
            },
            {
              "indexed": false,
              "internalType": "uint256",
              "name": "revenue",
              "type": "uint256"
            }
          ],
          "name": "Settle",
          "type": "event"
        },
        {
          "anonymous": false,
          "inputs": [
            {
              "indexed": true,
              "internalType": "string",
              "name": "mapId",
              "type": "string"
            },
            {
              "indexed": false,
              "internalType": "uint256",
              "name": "revenue",
              "type": "uint256"
            }
          ],
          "name": "Share",
          "type": "event"
        },
        {
          "anonymous": false,
          "inputs": [
            {
              "indexed": true,
              "internalType": "address",
              "name": "player",
              "type": "address"
            },
            {
              "indexed": true,
              "internalType": "string",
              "name": "mapId",
              "type": "string"
            },
            {
              "indexed": false,
              "internalType": "uint256",
              "name": "spent",
              "type": "uint256"
            }
          ],
          "name": "Upload",
          "type": "event"
        },
        {
          "inputs": [],
          "name": "agent",
          "outputs": [
            {
              "internalType": "address",
              "name": "",
              "type": "address"
            }
          ],
          "stateMutability": "view",
          "type": "function"
        },
        {
          "inputs": [
            {
              "internalType": "string",
              "name": "paymentId",
              "type": "string"
            },
            {
              "internalType": "string",
              "name": "level",
              "type": "string"
            },
            {
              "internalType": "uint256",
              "name": "amount",
              "type": "uint256"
            },
            {
              "internalType": "uint256",
              "name": "includeFee",
              "type": "uint256"
            }
          ],
          "name": "buildMap",
          "outputs": [],
          "stateMutability": "nonpayable",
          "type": "function"
        },
        {
          "inputs": [
            {
              "internalType": "address",
              "name": "_agent",
              "type": "address"
            }
          ],
          "name": "changeAgent",
          "outputs": [],
          "stateMutability": "nonpayable",
          "type": "function"
        },
        {
          "inputs": [],
          "name": "claim",
          "outputs": [],
          "stateMutability": "nonpayable",
          "type": "function"
        },
        {
          "inputs": [
            {
              "internalType": "string",
              "name": "paymentId",
              "type": "string"
            },
            {
              "internalType": "string",
              "name": "mapId",
              "type": "string"
            },
            {
              "internalType": "uint8",
              "name": "mode",
              "type": "uint8"
            },
            {
              "internalType": "uint256",
              "name": "amount",
              "type": "uint256"
            },
            {
              "internalType": "uint256",
              "name": "includeFee",
              "type": "uint256"
            }
          ],
          "name": "createSpace",
          "outputs": [],
          "stateMutability": "nonpayable",
          "type": "function"
        },
        {
          "inputs": [],
          "name": "jcc",
          "outputs": [
            {
              "internalType": "contract IERC20",
              "name": "",
              "type": "address"
            }
          ],
          "stateMutability": "view",
          "type": "function"
        },
        {
          "inputs": [],
          "name": "owner",
          "outputs": [
            {
              "internalType": "address",
              "name": "",
              "type": "address"
            }
          ],
          "stateMutability": "view",
          "type": "function"
        },
        {
          "inputs": [
            {
              "internalType": "string",
              "name": "paymentId",
              "type": "string"
            },
            {
              "internalType": "string",
              "name": "mapId",
              "type": "string"
            },
            {
              "internalType": "uint256",
              "name": "amount",
              "type": "uint256"
            },
            {
              "internalType": "uint256",
              "name": "includeFee",
              "type": "uint256"
            }
          ],
          "name": "readyAt",
          "outputs": [],
          "stateMutability": "nonpayable",
          "type": "function"
        },
        {
          "inputs": [],
          "name": "renounceOwnership",
          "outputs": [],
          "stateMutability": "nonpayable",
          "type": "function"
        },
        {
          "inputs": [
            {
              "internalType": "address",
              "name": "",
              "type": "address"
            }
          ],
          "name": "rewards",
          "outputs": [
            {
              "internalType": "uint256",
              "name": "",
              "type": "uint256"
            }
          ],
          "stateMutability": "view",
          "type": "function"
        },
        {
          "inputs": [
            {
              "internalType": "string",
              "name": "mapId",
              "type": "string"
            },
            {
              "internalType": "address",
              "name": "mapBuilder",
              "type": "address"
            },
            {
              "internalType": "uint256",
              "name": "builderReward",
              "type": "uint256"
            },
            {
              "internalType": "uint256",
              "name": "protocolRevenue",
              "type": "uint256"
            },
            {
              "internalType": "address[]",
              "name": "winners",
              "type": "address[]"
            },
            {
              "internalType": "uint256[]",
              "name": "distributions",
              "type": "uint256[]"
            }
          ],
          "name": "settle",
          "outputs": [],
          "stateMutability": "nonpayable",
          "type": "function"
        },
        {
          "inputs": [
            {
              "internalType": "address",
              "name": "newOwner",
              "type": "address"
            }
          ],
          "name": "transferOwnership",
          "outputs": [],
          "stateMutability": "nonpayable",
          "type": "function"
        },
        {
          "inputs": [
            {
              "internalType": "address",
              "name": "player",
              "type": "address"
            },
            {
              "internalType": "string",
              "name": "mapId",
              "type": "string"
            },
            {
              "internalType": "uint256",
              "name": "useTime",
              "type": "uint256"
            }
          ],
          "name": "upload",
          "outputs": [],
          "stateMutability": "nonpayable",
          "type": "function"
        }
      ],
      "evm": {
        "bytecode": {
          "linkReferences": {},
          "object": "608060405234801561000f575f80fd5b50604051610e21380380610e2183398101604081905261002e916100f8565b338061005357604051631e4fbdf760e01b81525f600482015260240160405180910390fd5b61005c816100a9565b5060018055600480546001600160a01b0319166001600160a01b0383161790556100833390565b600380546001600160a01b0319166001600160a01b039290921691909117905550610125565b5f80546001600160a01b038381166001600160a01b0319831681178455604051919092169283917f8be0079c531659141344cd1fd0a4f28419497f9722a3daafe3b4186f6b6457e09190a35050565b5f60208284031215610108575f80fd5b81516001600160a01b038116811461011e575f80fd5b9392505050565b610cef806101325f395ff3fe608060405234801561000f575f80fd5b50600436106100cb575f3560e01c8063715018a611610088578063c662b0f311610063578063c662b0f31461019a578063c940070a146101ad578063f2fde38b146101c0578063f5ff5c76146101d3575f80fd5b8063715018a61461016f57806386586e4d146101775780638da5cb5b1461018a575f80fd5b806304834957146100cf5780630700037d146100e457806340df4745146101165780634e71d92d1461014157806351ca3d241461014957806357f032e71461015c575b5f80fd5b6100e26100dd36600461094c565b6101e6565b005b6101036100f23660046109ee565b60026020525f908152604090205481565b6040519081526020015b60405180910390f35b600454610129906001600160a01b031681565b6040516001600160a01b03909116815260200161010d565b6100e2610257565b6100e2610157366004610a0e565b6102fc565b6100e261016a3660046109ee565b61036a565b6100e26103bb565b6100e2610185366004610a7d565b6103cc565b5f546001600160a01b0316610129565b6100e26101a8366004610b18565b61045e565b6100e26101bb366004610a0e565b610697565b6100e26101ce3660046109ee565b6106f6565b600354610129906001600160a01b031681565b336101f2818484610738565b846040516102009190610bc8565b6040518091039020816001600160a01b03167fa1fa20fdcdecabddebef92f6bee49b2d51a740724a89b1bf9f0cb0a0ebff9686888787876040516102479493929190610c0c565b60405180910390a3505050505050565b61025f61080a565b5f336001600160a01b038181165f81815260026020526040808220805492905560048054915163a9059cbb60e01b81529081019390935260248301829052939450929091169063a9059cbb906044016020604051808303815f875af11580156102ca573d5f803e3d5ffd5b505050506040513d601f19601f820116820180604052508101906102ee9190610c3d565b5050506102fa60018055565b565b33610308818484610738565b836040516103169190610bc8565b6040518091039020816001600160a01b03167f374dda0ce1e483ee0169fc2f88e2de06327666705203d6cf01dc6be85f04da2d87868660405161035b93929190610c5c565b60405180910390a35050505050565b610372610834565b6001600160a01b03811661039957604051633494a40d60e21b815260040160405180910390fd5b600380546001600160a01b0319166001600160a01b0392909216919091179055565b6103c3610834565b6102fa5f610860565b6003546001600160a01b0316336001600160a01b0316146104005760405163bebdc75760e01b815260040160405180910390fd5b8160405161040e9190610bc8565b6040518091039020836001600160a01b03167f34647a087c36357c4b77d3d7b4bc2b55d01c3ef8726dc75a70652d96e1510cc38360405161045191815260200190565b60405180910390a3505050565b6003546001600160a01b0316336001600160a01b0316146104925760405163bebdc75760e01b815260040160405180910390fd5b8281146104b257604051633494a40d60e21b815260040160405180910390fd5b6001600160a01b0387165f90815260026020526040812080548892906104d9908490610c80565b90915550506040516001600160a01b038816906104f7908a90610bc8565b604051908190038120888252907fd0e399ebeac2fc61c10361dcc10a35b1496bde69e6d498701837ddc3e92d84a29060200160405180910390a35f80546001600160a01b031680825260026020526040822080549192889261055a908490610c80565b909155505060405161056d908a90610bc8565b604051908190038120878252907f86c5a6cbfdc20f8b2fdd0ac4d794e7893a278650bcb5cbd07dcd3cb4013929e59060200160405180910390a25f5b8481101561068b575f8686838181106105c4576105c4610ca5565b90506020020160208101906105d991906109ee565b90505f8585848181106105ee576105ee610ca5565b9050602002013590508060025f846001600160a01b03166001600160a01b031681526020019081526020015f205f8282546106299190610c80565b90915550506040516001600160a01b03831690610647908e90610bc8565b604051908190038120838252907fc5fa900bb38ac6867166191ffd13e7b77d3c3603afe3d52f77b95693b065a7f09060200160405180910390a350506001016105a9565b50505050505050505050565b336106a3818484610738565b836040516106b19190610bc8565b6040518091039020816001600160a01b03167f67daa77442945a6a4400d2b1a71e13bb04bdab2f868e86a8d03c8007f2ef7ee987868660405161035b93929190610c5c565b6106fe610834565b6001600160a01b03811661072c57604051631e4fbdf760e01b81525f60048201526024015b60405180910390fd5b61073581610860565b50565b8181111561075957604051631752ff0760e31b815260040160405180910390fd5b600480546040516323b872dd60e01b81526001600160a01b0386811693820193909352306024820152604481018590529116906323b872dd906064016020604051808303815f875af11580156107b1573d5f803e3d5ffd5b505050506040513d601f19601f820116820180604052508101906107d59190610c3d565b505f80546001600160a01b03168082526002602052604082208054919284926107ff908490610c80565b909155505050505050565b60026001540361082d57604051633ee5aeb560e01b815260040160405180910390fd5b6002600155565b5f546001600160a01b031633146102fa5760405163118cdaa760e01b8152336004820152602401610723565b5f80546001600160a01b038381166001600160a01b0319831681178455604051919092169283917f8be0079c531659141344cd1fd0a4f28419497f9722a3daafe3b4186f6b6457e09190a35050565b634e487b7160e01b5f52604160045260245ffd5b5f82601f8301126108d2575f80fd5b813567ffffffffffffffff808211156108ed576108ed6108af565b604051601f8301601f19908116603f01168101908282118183101715610915576109156108af565b8160405283815286602085880101111561092d575f80fd5b836020870160208301375f602085830101528094505050505092915050565b5f805f805f60a08688031215610960575f80fd5b853567ffffffffffffffff80821115610977575f80fd5b61098389838a016108c3565b96506020880135915080821115610998575f80fd5b506109a5888289016108c3565b945050604086013560ff811681146109bb575f80fd5b94979396509394606081013594506080013592915050565b80356001600160a01b03811681146109e9575f80fd5b919050565b5f602082840312156109fe575f80fd5b610a07826109d3565b9392505050565b5f805f8060808587031215610a21575f80fd5b843567ffffffffffffffff80821115610a38575f80fd5b610a44888389016108c3565b95506020870135915080821115610a59575f80fd5b50610a66878288016108c3565b949794965050505060408301359260600135919050565b5f805f60608486031215610a8f575f80fd5b610a98846109d3565b9250602084013567ffffffffffffffff811115610ab3575f80fd5b610abf868287016108c3565b925050604084013590509250925092565b5f8083601f840112610ae0575f80fd5b50813567ffffffffffffffff811115610af7575f80fd5b6020830191508360208260051b8501011115610b11575f80fd5b9250929050565b5f805f805f805f8060c0898b031215610b2f575f80fd5b883567ffffffffffffffff80821115610b46575f80fd5b610b528c838d016108c3565b9950610b6060208c016109d3565b985060408b0135975060608b0135965060808b0135915080821115610b83575f80fd5b610b8f8c838d01610ad0565b909650945060a08b0135915080821115610ba7575f80fd5b50610bb48b828c01610ad0565b999c989b5096995094979396929594505050565b5f82518060208501845e5f920191825250919050565b5f81518084528060208401602086015e5f602082860101526020601f19601f83011685010191505092915050565b608081525f610c1e6080830187610bde565b60ff959095166020830152506040810192909252606090910152919050565b5f60208284031215610c4d575f80fd5b81518015158114610a07575f80fd5b606081525f610c6e6060830186610bde565b60208301949094525060400152919050565b80820180821115610c9f57634e487b7160e01b5f52601160045260245ffd5b92915050565b634e487b7160e01b5f52603260045260245ffdfea2646970667358221220bb86f248b7b76b2139daf668aeb2a7eca6fb1e3d85d3b432452a6208a75942cb64736f6c63430008190033",
          "opcodes": "PUSH1 0x80 PUSH1 0x40 MSTORE CALLVALUE DUP1 ISZERO PUSH2 0xF JUMPI PUSH0 DUP1 REVERT JUMPDEST POP PUSH1 0x40 MLOAD PUSH2 0xE21 CODESIZE SUB DUP1 PUSH2 0xE21 DUP4 CODECOPY DUP2 ADD PUSH1 0x40 DUP2 SWAP1 MSTORE PUSH2 0x2E SWAP2 PUSH2 0xF8 JUMP JUMPDEST CALLER DUP1 PUSH2 0x53 JUMPI PUSH1 0x40 MLOAD PUSH4 0x1E4FBDF7 PUSH1 0xE0 SHL DUP2 MSTORE PUSH0 PUSH1 0x4 DUP3 ADD MSTORE PUSH1 0x24 ADD PUSH1 0x40 MLOAD DUP1 SWAP2 SUB SWAP1 REVERT JUMPDEST PUSH2 0x5C DUP2 PUSH2 0xA9 JUMP JUMPDEST POP PUSH1 0x1 DUP1 SSTORE PUSH1 0x4 DUP1 SLOAD PUSH1 0x1 PUSH1 0x1 PUSH1 0xA0 SHL SUB NOT AND PUSH1 0x1 PUSH1 0x1 PUSH1 0xA0 SHL SUB DUP4 AND OR SWAP1 SSTORE PUSH2 0x83 CALLER SWAP1 JUMP JUMPDEST PUSH1 0x3 DUP1 SLOAD PUSH1 0x1 PUSH1 0x1 PUSH1 0xA0 SHL SUB NOT AND PUSH1 0x1 PUSH1 0x1 PUSH1 0xA0 SHL SUB SWAP3 SWAP1 SWAP3 AND SWAP2 SWAP1 SWAP2 OR SWAP1 SSTORE POP PUSH2 0x125 JUMP JUMPDEST PUSH0 DUP1 SLOAD PUSH1 0x1 PUSH1 0x1 PUSH1 0xA0 SHL SUB DUP4 DUP2 AND PUSH1 0x1 PUSH1 0x1 PUSH1 0xA0 SHL SUB NOT DUP4 AND DUP2 OR DUP5 SSTORE PUSH1 0x40 MLOAD SWAP2 SWAP1 SWAP3 AND SWAP3 DUP4 SWAP2 PUSH32 0x8BE0079C531659141344CD1FD0A4F28419497F9722A3DAAFE3B4186F6B6457E0 SWAP2 SWAP1 LOG3 POP POP JUMP JUMPDEST PUSH0 PUSH1 0x20 DUP3 DUP5 SUB SLT ISZERO PUSH2 0x108 JUMPI PUSH0 DUP1 REVERT JUMPDEST DUP2 MLOAD PUSH1 0x1 PUSH1 0x1 PUSH1 0xA0 SHL SUB DUP2 AND DUP2 EQ PUSH2 0x11E JUMPI PUSH0 DUP1 REVERT JUMPDEST SWAP4 SWAP3 POP POP POP JUMP JUMPDEST PUSH2 0xCEF DUP1 PUSH2 0x132 PUSH0 CODECOPY PUSH0 RETURN INVALID PUSH1 0x80 PUSH1 0x40 MSTORE CALLVALUE DUP1 ISZERO PUSH2 0xF JUMPI PUSH0 DUP1 REVERT JUMPDEST POP PUSH1 0x4 CALLDATASIZE LT PUSH2 0xCB JUMPI PUSH0 CALLDATALOAD PUSH1 0xE0 SHR DUP1 PUSH4 0x715018A6 GT PUSH2 0x88 JUMPI DUP1 PUSH4 0xC662B0F3 GT PUSH2 0x63 JUMPI DUP1 PUSH4 0xC662B0F3 EQ PUSH2 0x19A JUMPI DUP1 PUSH4 0xC940070A EQ PUSH2 0x1AD JUMPI DUP1 PUSH4 0xF2FDE38B EQ PUSH2 0x1C0 JUMPI DUP1 PUSH4 0xF5FF5C76 EQ PUSH2 0x1D3 JUMPI PUSH0 DUP1 REVERT JUMPDEST DUP1 PUSH4 0x715018A6 EQ PUSH2 0x16F JUMPI DUP1 PUSH4 0x86586E4D EQ PUSH2 0x177 JUMPI DUP1 PUSH4 0x8DA5CB5B EQ PUSH2 0x18A JUMPI PUSH0 DUP1 REVERT JUMPDEST DUP1 PUSH4 0x4834957 EQ PUSH2 0xCF JUMPI DUP1 PUSH4 0x700037D EQ PUSH2 0xE4 JUMPI DUP1 PUSH4 0x40DF4745 EQ PUSH2 0x116 JUMPI DUP1 PUSH4 0x4E71D92D EQ PUSH2 0x141 JUMPI DUP1 PUSH4 0x51CA3D24 EQ PUSH2 0x149 JUMPI DUP1 PUSH4 0x57F032E7 EQ PUSH2 0x15C JUMPI JUMPDEST PUSH0 DUP1 REVERT JUMPDEST PUSH2 0xE2 PUSH2 0xDD CALLDATASIZE PUSH1 0x4 PUSH2 0x94C JUMP JUMPDEST PUSH2 0x1E6 JUMP JUMPDEST STOP JUMPDEST PUSH2 0x103 PUSH2 0xF2 CALLDATASIZE PUSH1 0x4 PUSH2 0x9EE JUMP JUMPDEST PUSH1 0x2 PUSH1 0x20 MSTORE PUSH0 SWAP1 DUP2 MSTORE PUSH1 0x40 SWAP1 KECCAK256 SLOAD DUP2 JUMP JUMPDEST PUSH1 0x40 MLOAD SWAP1 DUP2 MSTORE PUSH1 0x20 ADD JUMPDEST PUSH1 0x40 MLOAD DUP1 SWAP2 SUB SWAP1 RETURN JUMPDEST PUSH1 0x4 SLOAD PUSH2 0x129 SWAP1 PUSH1 0x1 PUSH1 0x1 PUSH1 0xA0 SHL SUB AND DUP2 JUMP JUMPDEST PUSH1 0x40 MLOAD PUSH1 0x1 PUSH1 0x1 PUSH1 0xA0 SHL SUB SWAP1 SWAP2 AND DUP2 MSTORE PUSH1 0x20 ADD PUSH2 0x10D JUMP JUMPDEST PUSH2 0xE2 PUSH2 0x257 JUMP JUMPDEST PUSH2 0xE2 PUSH2 0x157 CALLDATASIZE PUSH1 0x4 PUSH2 0xA0E JUMP JUMPDEST PUSH2 0x2FC JUMP JUMPDEST PUSH2 0xE2 PUSH2 0x16A CALLDATASIZE PUSH1 0x4 PUSH2 0x9EE JUMP JUMPDEST PUSH2 0x36A JUMP JUMPDEST PUSH2 0xE2 PUSH2 0x3BB JUMP JUMPDEST PUSH2 0xE2 PUSH2 0x185 CALLDATASIZE PUSH1 0x4 PUSH2 0xA7D JUMP JUMPDEST PUSH2 0x3CC JUMP JUMPDEST PUSH0 SLOAD PUSH1 0x1 PUSH1 0x1 PUSH1 0xA0 SHL SUB AND PUSH2 0x129 JUMP JUMPDEST PUSH2 0xE2 PUSH2 0x1A8 CALLDATASIZE PUSH1 0x4 PUSH2 0xB18 JUMP JUMPDEST PUSH2 0x45E JUMP JUMPDEST PUSH2 0xE2 PUSH2 0x1BB CALLDATASIZE PUSH1 0x4 PUSH2 0xA0E JUMP JUMPDEST PUSH2 0x697 JUMP JUMPDEST PUSH2 0xE2 PUSH2 0x1CE CALLDATASIZE PUSH1 0x4 PUSH2 0x9EE JUMP JUMPDEST PUSH2 0x6F6 JUMP JUMPDEST PUSH1 0x3 SLOAD PUSH2 0x129 SWAP1 PUSH1 0x1 PUSH1 0x1 PUSH1 0xA0 SHL SUB AND DUP2 JUMP JUMPDEST CALLER PUSH2 0x1F2 DUP2 DUP5 DUP5 PUSH2 0x738 JUMP JUMPDEST DUP5 PUSH1 0x40 MLOAD PUSH2 0x200 SWAP2 SWAP1 PUSH2 0xBC8 JUMP JUMPDEST PUSH1 0x40 MLOAD DUP1 SWAP2 SUB SWAP1 KECCAK256 DUP2 PUSH1 0x1 PUSH1 0x1 PUSH1 0xA0 SHL SUB AND PUSH32 0xA1FA20FDCDECABDDEBEF92F6BEE49B2D51A740724A89B1BF9F0CB0A0EBFF9686 DUP9 DUP8 DUP8 DUP8 PUSH1 0x40 MLOAD PUSH2 0x247 SWAP5 SWAP4 SWAP3 SWAP2 SWAP1 PUSH2 0xC0C JUMP JUMPDEST PUSH1 0x40 MLOAD DUP1 SWAP2 SUB SWAP1 LOG3 POP POP POP POP POP POP JUMP JUMPDEST PUSH2 0x25F PUSH2 0x80A JUMP JUMPDEST PUSH0 CALLER PUSH1 0x1 PUSH1 0x1 PUSH1 0xA0 SHL SUB DUP2 DUP2 AND PUSH0 DUP2 DUP2 MSTORE PUSH1 0x2 PUSH1 0x20 MSTORE PUSH1 0x40 DUP1 DUP3 KECCAK256 DUP1 SLOAD SWAP3 SWAP1 SSTORE PUSH1 0x4 DUP1 SLOAD SWAP2 MLOAD PUSH4 0xA9059CBB PUSH1 0xE0 SHL DUP2 MSTORE SWAP1 DUP2 ADD SWAP4 SWAP1 SWAP4 MSTORE PUSH1 0x24 DUP4 ADD DUP3 SWAP1 MSTORE SWAP4 SWAP5 POP SWAP3 SWAP1 SWAP2 AND SWAP1 PUSH4 0xA9059CBB SWAP1 PUSH1 0x44 ADD PUSH1 0x20 PUSH1 0x40 MLOAD DUP1 DUP4 SUB DUP2 PUSH0 DUP8 GAS CALL ISZERO DUP1 ISZERO PUSH2 0x2CA JUMPI RETURNDATASIZE PUSH0 DUP1 RETURNDATACOPY RETURNDATASIZE PUSH0 REVERT JUMPDEST POP POP POP POP PUSH1 0x40 MLOAD RETURNDATASIZE PUSH1 0x1F NOT PUSH1 0x1F DUP3 ADD AND DUP3 ADD DUP1 PUSH1 0x40 MSTORE POP DUP2 ADD SWAP1 PUSH2 0x2EE SWAP2 SWAP1 PUSH2 0xC3D JUMP JUMPDEST POP POP POP PUSH2 0x2FA PUSH1 0x1 DUP1 SSTORE JUMP JUMPDEST JUMP JUMPDEST CALLER PUSH2 0x308 DUP2 DUP5 DUP5 PUSH2 0x738 JUMP JUMPDEST DUP4 PUSH1 0x40 MLOAD PUSH2 0x316 SWAP2 SWAP1 PUSH2 0xBC8 JUMP JUMPDEST PUSH1 0x40 MLOAD DUP1 SWAP2 SUB SWAP1 KECCAK256 DUP2 PUSH1 0x1 PUSH1 0x1 PUSH1 0xA0 SHL SUB AND PUSH32 0x374DDA0CE1E483EE0169FC2F88E2DE06327666705203D6CF01DC6BE85F04DA2D DUP8 DUP7 DUP7 PUSH1 0x40 MLOAD PUSH2 0x35B SWAP4 SWAP3 SWAP2 SWAP1 PUSH2 0xC5C JUMP JUMPDEST PUSH1 0x40 MLOAD DUP1 SWAP2 SUB SWAP1 LOG3 POP POP POP POP POP JUMP JUMPDEST PUSH2 0x372 PUSH2 0x834 JUMP JUMPDEST PUSH1 0x1 PUSH1 0x1 PUSH1 0xA0 SHL SUB DUP2 AND PUSH2 0x399 JUMPI PUSH1 0x40 MLOAD PUSH4 0x3494A40D PUSH1 0xE2 SHL DUP2 MSTORE PUSH1 0x4 ADD PUSH1 0x40 MLOAD DUP1 SWAP2 SUB SWAP1 REVERT JUMPDEST PUSH1 0x3 DUP1 SLOAD PUSH1 0x1 PUSH1 0x1 PUSH1 0xA0 SHL SUB NOT AND PUSH1 0x1 PUSH1 0x1 PUSH1 0xA0 SHL SUB SWAP3 SWAP1 SWAP3 AND SWAP2 SWAP1 SWAP2 OR SWAP1 SSTORE JUMP JUMPDEST PUSH2 0x3C3 PUSH2 0x834 JUMP JUMPDEST PUSH2 0x2FA PUSH0 PUSH2 0x860 JUMP JUMPDEST PUSH1 0x3 SLOAD PUSH1 0x1 PUSH1 0x1 PUSH1 0xA0 SHL SUB AND CALLER PUSH1 0x1 PUSH1 0x1 PUSH1 0xA0 SHL SUB AND EQ PUSH2 0x400 JUMPI PUSH1 0x40 MLOAD PUSH4 0xBEBDC757 PUSH1 0xE0 SHL DUP2 MSTORE PUSH1 0x4 ADD PUSH1 0x40 MLOAD DUP1 SWAP2 SUB SWAP1 REVERT JUMPDEST DUP2 PUSH1 0x40 MLOAD PUSH2 0x40E SWAP2 SWAP1 PUSH2 0xBC8 JUMP JUMPDEST PUSH1 0x40 MLOAD DUP1 SWAP2 SUB SWAP1 KECCAK256 DUP4 PUSH1 0x1 PUSH1 0x1 PUSH1 0xA0 SHL SUB AND PUSH32 0x34647A087C36357C4B77D3D7B4BC2B55D01C3EF8726DC75A70652D96E1510CC3 DUP4 PUSH1 0x40 MLOAD PUSH2 0x451 SWAP2 DUP2 MSTORE PUSH1 0x20 ADD SWAP1 JUMP JUMPDEST PUSH1 0x40 MLOAD DUP1 SWAP2 SUB SWAP1 LOG3 POP POP POP JUMP JUMPDEST PUSH1 0x3 SLOAD PUSH1 0x1 PUSH1 0x1 PUSH1 0xA0 SHL SUB AND CALLER PUSH1 0x1 PUSH1 0x1 PUSH1 0xA0 SHL SUB AND EQ PUSH2 0x492 JUMPI PUSH1 0x40 MLOAD PUSH4 0xBEBDC757 PUSH1 0xE0 SHL DUP2 MSTORE PUSH1 0x4 ADD PUSH1 0x40 MLOAD DUP1 SWAP2 SUB SWAP1 REVERT JUMPDEST DUP3 DUP2 EQ PUSH2 0x4B2 JUMPI PUSH1 0x40 MLOAD PUSH4 0x3494A40D PUSH1 0xE2 SHL DUP2 MSTORE PUSH1 0x4 ADD PUSH1 0x40 MLOAD DUP1 SWAP2 SUB SWAP1 REVERT JUMPDEST PUSH1 0x1 PUSH1 0x1 PUSH1 0xA0 SHL SUB DUP8 AND PUSH0 SWAP1 DUP2 MSTORE PUSH1 0x2 PUSH1 0x20 MSTORE PUSH1 0x40 DUP2 KECCAK256 DUP1 SLOAD DUP9 SWAP3 SWAP1 PUSH2 0x4D9 SWAP1 DUP5 SWAP1 PUSH2 0xC80 JUMP JUMPDEST SWAP1 SWAP2 SSTORE POP POP PUSH1 0x40 MLOAD PUSH1 0x1 PUSH1 0x1 PUSH1 0xA0 SHL SUB DUP9 AND SWAP1 PUSH2 0x4F7 SWAP1 DUP11 SWAP1 PUSH2 0xBC8 JUMP JUMPDEST PUSH1 0x40 MLOAD SWAP1 DUP2 SWAP1 SUB DUP2 KECCAK256 DUP9 DUP3 MSTORE SWAP1 PUSH32 0xD0E399EBEAC2FC61C10361DCC10A35B1496BDE69E6D498701837DDC3E92D84A2 SWAP1 PUSH1 0x20 ADD PUSH1 0x40 MLOAD DUP1 SWAP2 SUB SWAP1 LOG3 PUSH0 DUP1 SLOAD PUSH1 0x1 PUSH1 0x1 PUSH1 0xA0 SHL SUB AND DUP1 DUP3 MSTORE PUSH1 0x2 PUSH1 0x20 MSTORE PUSH1 0x40 DUP3 KECCAK256 DUP1 SLOAD SWAP2 SWAP3 DUP9 SWAP3 PUSH2 0x55A SWAP1 DUP5 SWAP1 PUSH2 0xC80 JUMP JUMPDEST SWAP1 SWAP2 SSTORE POP POP PUSH1 0x40 MLOAD PUSH2 0x56D SWAP1 DUP11 SWAP1 PUSH2 0xBC8 JUMP JUMPDEST PUSH1 0x40 MLOAD SWAP1 DUP2 SWAP1 SUB DUP2 KECCAK256 DUP8 DUP3 MSTORE SWAP1 PUSH32 0x86C5A6CBFDC20F8B2FDD0AC4D794E7893A278650BCB5CBD07DCD3CB4013929E5 SWAP1 PUSH1 0x20 ADD PUSH1 0x40 MLOAD DUP1 SWAP2 SUB SWAP1 LOG2 PUSH0 JUMPDEST DUP5 DUP2 LT ISZERO PUSH2 0x68B JUMPI PUSH0 DUP7 DUP7 DUP4 DUP2 DUP2 LT PUSH2 0x5C4 JUMPI PUSH2 0x5C4 PUSH2 0xCA5 JUMP JUMPDEST SWAP1 POP PUSH1 0x20 MUL ADD PUSH1 0x20 DUP2 ADD SWAP1 PUSH2 0x5D9 SWAP2 SWAP1 PUSH2 0x9EE JUMP JUMPDEST SWAP1 POP PUSH0 DUP6 DUP6 DUP5 DUP2 DUP2 LT PUSH2 0x5EE JUMPI PUSH2 0x5EE PUSH2 0xCA5 JUMP JUMPDEST SWAP1 POP PUSH1 0x20 MUL ADD CALLDATALOAD SWAP1 POP DUP1 PUSH1 0x2 PUSH0 DUP5 PUSH1 0x1 PUSH1 0x1 PUSH1 0xA0 SHL SUB AND PUSH1 0x1 PUSH1 0x1 PUSH1 0xA0 SHL SUB AND DUP2 MSTORE PUSH1 0x20 ADD SWAP1 DUP2 MSTORE PUSH1 0x20 ADD PUSH0 KECCAK256 PUSH0 DUP3 DUP3 SLOAD PUSH2 0x629 SWAP2 SWAP1 PUSH2 0xC80 JUMP JUMPDEST SWAP1 SWAP2 SSTORE POP POP PUSH1 0x40 MLOAD PUSH1 0x1 PUSH1 0x1 PUSH1 0xA0 SHL SUB DUP4 AND SWAP1 PUSH2 0x647 SWAP1 DUP15 SWAP1 PUSH2 0xBC8 JUMP JUMPDEST PUSH1 0x40 MLOAD SWAP1 DUP2 SWAP1 SUB DUP2 KECCAK256 DUP4 DUP3 MSTORE SWAP1 PUSH32 0xC5FA900BB38AC6867166191FFD13E7B77D3C3603AFE3D52F77B95693B065A7F0 SWAP1 PUSH1 0x20 ADD PUSH1 0x40 MLOAD DUP1 SWAP2 SUB SWAP1 LOG3 POP POP PUSH1 0x1 ADD PUSH2 0x5A9 JUMP JUMPDEST POP POP POP POP POP POP POP POP POP POP JUMP JUMPDEST CALLER PUSH2 0x6A3 DUP2 DUP5 DUP5 PUSH2 0x738 JUMP JUMPDEST DUP4 PUSH1 0x40 MLOAD PUSH2 0x6B1 SWAP2 SWAP1 PUSH2 0xBC8 JUMP JUMPDEST PUSH1 0x40 MLOAD DUP1 SWAP2 SUB SWAP1 KECCAK256 DUP2 PUSH1 0x1 PUSH1 0x1 PUSH1 0xA0 SHL SUB AND PUSH32 0x67DAA77442945A6A4400D2B1A71E13BB04BDAB2F868E86A8D03C8007F2EF7EE9 DUP8 DUP7 DUP7 PUSH1 0x40 MLOAD PUSH2 0x35B SWAP4 SWAP3 SWAP2 SWAP1 PUSH2 0xC5C JUMP JUMPDEST PUSH2 0x6FE PUSH2 0x834 JUMP JUMPDEST PUSH1 0x1 PUSH1 0x1 PUSH1 0xA0 SHL SUB DUP2 AND PUSH2 0x72C JUMPI PUSH1 0x40 MLOAD PUSH4 0x1E4FBDF7 PUSH1 0xE0 SHL DUP2 MSTORE PUSH0 PUSH1 0x4 DUP3 ADD MSTORE PUSH1 0x24 ADD JUMPDEST PUSH1 0x40 MLOAD DUP1 SWAP2 SUB SWAP1 REVERT JUMPDEST PUSH2 0x735 DUP2 PUSH2 0x860 JUMP JUMPDEST POP JUMP JUMPDEST DUP2 DUP2 GT ISZERO PUSH2 0x759 JUMPI PUSH1 0x40 MLOAD PUSH4 0x1752FF07 PUSH1 0xE3 SHL DUP2 MSTORE PUSH1 0x4 ADD PUSH1 0x40 MLOAD DUP1 SWAP2 SUB SWAP1 REVERT JUMPDEST PUSH1 0x4 DUP1 SLOAD PUSH1 0x40 MLOAD PUSH4 0x23B872DD PUSH1 0xE0 SHL DUP2 MSTORE PUSH1 0x1 PUSH1 0x1 PUSH1 0xA0 SHL SUB DUP7 DUP2 AND SWAP4 DUP3 ADD SWAP4 SWAP1 SWAP4 MSTORE ADDRESS PUSH1 0x24 DUP3 ADD MSTORE PUSH1 0x44 DUP2 ADD DUP6 SWAP1 MSTORE SWAP2 AND SWAP1 PUSH4 0x23B872DD SWAP1 PUSH1 0x64 ADD PUSH1 0x20 PUSH1 0x40 MLOAD DUP1 DUP4 SUB DUP2 PUSH0 DUP8 GAS CALL ISZERO DUP1 ISZERO PUSH2 0x7B1 JUMPI RETURNDATASIZE PUSH0 DUP1 RETURNDATACOPY RETURNDATASIZE PUSH0 REVERT JUMPDEST POP POP POP POP PUSH1 0x40 MLOAD RETURNDATASIZE PUSH1 0x1F NOT PUSH1 0x1F DUP3 ADD AND DUP3 ADD DUP1 PUSH1 0x40 MSTORE POP DUP2 ADD SWAP1 PUSH2 0x7D5 SWAP2 SWAP1 PUSH2 0xC3D JUMP JUMPDEST POP PUSH0 DUP1 SLOAD PUSH1 0x1 PUSH1 0x1 PUSH1 0xA0 SHL SUB AND DUP1 DUP3 MSTORE PUSH1 0x2 PUSH1 0x20 MSTORE PUSH1 0x40 DUP3 KECCAK256 DUP1 SLOAD SWAP2 SWAP3 DUP5 SWAP3 PUSH2 0x7FF SWAP1 DUP5 SWAP1 PUSH2 0xC80 JUMP JUMPDEST SWAP1 SWAP2 SSTORE POP POP POP POP POP POP JUMP JUMPDEST PUSH1 0x2 PUSH1 0x1 SLOAD SUB PUSH2 0x82D JUMPI PUSH1 0x40 MLOAD PUSH4 0x3EE5AEB5 PUSH1 0xE0 SHL DUP2 MSTORE PUSH1 0x4 ADD PUSH1 0x40 MLOAD DUP1 SWAP2 SUB SWAP1 REVERT JUMPDEST PUSH1 0x2 PUSH1 0x1 SSTORE JUMP JUMPDEST PUSH0 SLOAD PUSH1 0x1 PUSH1 0x1 PUSH1 0xA0 SHL SUB AND CALLER EQ PUSH2 0x2FA JUMPI PUSH1 0x40 MLOAD PUSH4 0x118CDAA7 PUSH1 0xE0 SHL DUP2 MSTORE CALLER PUSH1 0x4 DUP3 ADD MSTORE PUSH1 0x24 ADD PUSH2 0x723 JUMP JUMPDEST PUSH0 DUP1 SLOAD PUSH1 0x1 PUSH1 0x1 PUSH1 0xA0 SHL SUB DUP4 DUP2 AND PUSH1 0x1 PUSH1 0x1 PUSH1 0xA0 SHL SUB NOT DUP4 AND DUP2 OR DUP5 SSTORE PUSH1 0x40 MLOAD SWAP2 SWAP1 SWAP3 AND SWAP3 DUP4 SWAP2 PUSH32 0x8BE0079C531659141344CD1FD0A4F28419497F9722A3DAAFE3B4186F6B6457E0 SWAP2 SWAP1 LOG3 POP POP JUMP JUMPDEST PUSH4 0x4E487B71 PUSH1 0xE0 SHL PUSH0 MSTORE PUSH1 0x41 PUSH1 0x4 MSTORE PUSH1 0x24 PUSH0 REVERT JUMPDEST PUSH0 DUP3 PUSH1 0x1F DUP4 ADD SLT PUSH2 0x8D2 JUMPI PUSH0 DUP1 REVERT JUMPDEST DUP2 CALLDATALOAD PUSH8 0xFFFFFFFFFFFFFFFF DUP1 DUP3 GT ISZERO PUSH2 0x8ED JUMPI PUSH2 0x8ED PUSH2 0x8AF JUMP JUMPDEST PUSH1 0x40 MLOAD PUSH1 0x1F DUP4 ADD PUSH1 0x1F NOT SWAP1 DUP2 AND PUSH1 0x3F ADD AND DUP2 ADD SWAP1 DUP3 DUP3 GT DUP2 DUP4 LT OR ISZERO PUSH2 0x915 JUMPI PUSH2 0x915 PUSH2 0x8AF JUMP JUMPDEST DUP2 PUSH1 0x40 MSTORE DUP4 DUP2 MSTORE DUP7 PUSH1 0x20 DUP6 DUP9 ADD ADD GT ISZERO PUSH2 0x92D JUMPI PUSH0 DUP1 REVERT JUMPDEST DUP4 PUSH1 0x20 DUP8 ADD PUSH1 0x20 DUP4 ADD CALLDATACOPY PUSH0 PUSH1 0x20 DUP6 DUP4 ADD ADD MSTORE DUP1 SWAP5 POP POP POP POP POP SWAP3 SWAP2 POP POP JUMP JUMPDEST PUSH0 DUP1 PUSH0 DUP1 PUSH0 PUSH1 0xA0 DUP7 DUP9 SUB SLT ISZERO PUSH2 0x960 JUMPI PUSH0 DUP1 REVERT JUMPDEST DUP6 CALLDATALOAD PUSH8 0xFFFFFFFFFFFFFFFF DUP1 DUP3 GT ISZERO PUSH2 0x977 JUMPI PUSH0 DUP1 REVERT JUMPDEST PUSH2 0x983 DUP10 DUP4 DUP11 ADD PUSH2 0x8C3 JUMP JUMPDEST SWAP7 POP PUSH1 0x20 DUP9 ADD CALLDATALOAD SWAP2 POP DUP1 DUP3 GT ISZERO PUSH2 0x998 JUMPI PUSH0 DUP1 REVERT JUMPDEST POP PUSH2 0x9A5 DUP9 DUP3 DUP10 ADD PUSH2 0x8C3 JUMP JUMPDEST SWAP5 POP POP PUSH1 0x40 DUP7 ADD CALLDATALOAD PUSH1 0xFF DUP2 AND DUP2 EQ PUSH2 0x9BB JUMPI PUSH0 DUP1 REVERT JUMPDEST SWAP5 SWAP8 SWAP4 SWAP7 POP SWAP4 SWAP5 PUSH1 0x60 DUP2 ADD CALLDATALOAD SWAP5 POP PUSH1 0x80 ADD CALLDATALOAD SWAP3 SWAP2 POP POP JUMP JUMPDEST DUP1 CALLDATALOAD PUSH1 0x1 PUSH1 0x1 PUSH1 0xA0 SHL SUB DUP2 AND DUP2 EQ PUSH2 0x9E9 JUMPI PUSH0 DUP1 REVERT JUMPDEST SWAP2 SWAP1 POP JUMP JUMPDEST PUSH0 PUSH1 0x20 DUP3 DUP5 SUB SLT ISZERO PUSH2 0x9FE JUMPI PUSH0 DUP1 REVERT JUMPDEST PUSH2 0xA07 DUP3 PUSH2 0x9D3 JUMP JUMPDEST SWAP4 SWAP3 POP POP POP JUMP JUMPDEST PUSH0 DUP1 PUSH0 DUP1 PUSH1 0x80 DUP6 DUP8 SUB SLT ISZERO PUSH2 0xA21 JUMPI PUSH0 DUP1 REVERT JUMPDEST DUP5 CALLDATALOAD PUSH8 0xFFFFFFFFFFFFFFFF DUP1 DUP3 GT ISZERO PUSH2 0xA38 JUMPI PUSH0 DUP1 REVERT JUMPDEST PUSH2 0xA44 DUP9 DUP4 DUP10 ADD PUSH2 0x8C3 JUMP JUMPDEST SWAP6 POP PUSH1 0x20 DUP8 ADD CALLDATALOAD SWAP2 POP DUP1 DUP3 GT ISZERO PUSH2 0xA59 JUMPI PUSH0 DUP1 REVERT JUMPDEST POP PUSH2 0xA66 DUP8 DUP3 DUP9 ADD PUSH2 0x8C3 JUMP JUMPDEST SWAP5 SWAP8 SWAP5 SWAP7 POP POP POP POP PUSH1 0x40 DUP4 ADD CALLDATALOAD SWAP3 PUSH1 0x60 ADD CALLDATALOAD SWAP2 SWAP1 POP JUMP JUMPDEST PUSH0 DUP1 PUSH0 PUSH1 0x60 DUP5 DUP7 SUB SLT ISZERO PUSH2 0xA8F JUMPI PUSH0 DUP1 REVERT JUMPDEST PUSH2 0xA98 DUP5 PUSH2 0x9D3 JUMP JUMPDEST SWAP3 POP PUSH1 0x20 DUP5 ADD CALLDATALOAD PUSH8 0xFFFFFFFFFFFFFFFF DUP2 GT ISZERO PUSH2 0xAB3 JUMPI PUSH0 DUP1 REVERT JUMPDEST PUSH2 0xABF DUP7 DUP3 DUP8 ADD PUSH2 0x8C3 JUMP JUMPDEST SWAP3 POP POP PUSH1 0x40 DUP5 ADD CALLDATALOAD SWAP1 POP SWAP3 POP SWAP3 POP SWAP3 JUMP JUMPDEST PUSH0 DUP1 DUP4 PUSH1 0x1F DUP5 ADD SLT PUSH2 0xAE0 JUMPI PUSH0 DUP1 REVERT JUMPDEST POP DUP2 CALLDATALOAD PUSH8 0xFFFFFFFFFFFFFFFF DUP2 GT ISZERO PUSH2 0xAF7 JUMPI PUSH0 DUP1 REVERT JUMPDEST PUSH1 0x20 DUP4 ADD SWAP2 POP DUP4 PUSH1 0x20 DUP3 PUSH1 0x5 SHL DUP6 ADD ADD GT ISZERO PUSH2 0xB11 JUMPI PUSH0 DUP1 REVERT JUMPDEST SWAP3 POP SWAP3 SWAP1 POP JUMP JUMPDEST PUSH0 DUP1 PUSH0 DUP1 PUSH0 DUP1 PUSH0 DUP1 PUSH1 0xC0 DUP10 DUP12 SUB SLT ISZERO PUSH2 0xB2F JUMPI PUSH0 DUP1 REVERT JUMPDEST DUP9 CALLDATALOAD PUSH8 0xFFFFFFFFFFFFFFFF DUP1 DUP3 GT ISZERO PUSH2 0xB46 JUMPI PUSH0 DUP1 REVERT JUMPDEST PUSH2 0xB52 DUP13 DUP4 DUP14 ADD PUSH2 0x8C3 JUMP JUMPDEST SWAP10 POP PUSH2 0xB60 PUSH1 0x20 DUP13 ADD PUSH2 0x9D3 JUMP JUMPDEST SWAP9 POP PUSH1 0x40 DUP12 ADD CALLDATALOAD SWAP8 POP PUSH1 0x60 DUP12 ADD CALLDATALOAD SWAP7 POP PUSH1 0x80 DUP12 ADD CALLDATALOAD SWAP2 POP DUP1 DUP3 GT ISZERO PUSH2 0xB83 JUMPI PUSH0 DUP1 REVERT JUMPDEST PUSH2 0xB8F DUP13 DUP4 DUP14 ADD PUSH2 0xAD0 JUMP JUMPDEST SWAP1 SWAP7 POP SWAP5 POP PUSH1 0xA0 DUP12 ADD CALLDATALOAD SWAP2 POP DUP1 DUP3 GT ISZERO PUSH2 0xBA7 JUMPI PUSH0 DUP1 REVERT JUMPDEST POP PUSH2 0xBB4 DUP12 DUP3 DUP13 ADD PUSH2 0xAD0 JUMP JUMPDEST SWAP10 SWAP13 SWAP9 SWAP12 POP SWAP7 SWAP10 POP SWAP5 SWAP8 SWAP4 SWAP7 SWAP3 SWAP6 SWAP5 POP POP POP JUMP JUMPDEST PUSH0 DUP3 MLOAD DUP1 PUSH1 0x20 DUP6 ADD DUP5 MCOPY PUSH0 SWAP3 ADD SWAP2 DUP3 MSTORE POP SWAP2 SWAP1 POP JUMP JUMPDEST PUSH0 DUP2 MLOAD DUP1 DUP5 MSTORE DUP1 PUSH1 0x20 DUP5 ADD PUSH1 0x20 DUP7 ADD MCOPY PUSH0 PUSH1 0x20 DUP3 DUP7 ADD ADD MSTORE PUSH1 0x20 PUSH1 0x1F NOT PUSH1 0x1F DUP4 ADD AND DUP6 ADD ADD SWAP2 POP POP SWAP3 SWAP2 POP POP JUMP JUMPDEST PUSH1 0x80 DUP2 MSTORE PUSH0 PUSH2 0xC1E PUSH1 0x80 DUP4 ADD DUP8 PUSH2 0xBDE JUMP JUMPDEST PUSH1 0xFF SWAP6 SWAP1 SWAP6 AND PUSH1 0x20 DUP4 ADD MSTORE POP PUSH1 0x40 DUP2 ADD SWAP3 SWAP1 SWAP3 MSTORE PUSH1 0x60 SWAP1 SWAP2 ADD MSTORE SWAP2 SWAP1 POP JUMP JUMPDEST PUSH0 PUSH1 0x20 DUP3 DUP5 SUB SLT ISZERO PUSH2 0xC4D JUMPI PUSH0 DUP1 REVERT JUMPDEST DUP2 MLOAD DUP1 ISZERO ISZERO DUP2 EQ PUSH2 0xA07 JUMPI PUSH0 DUP1 REVERT JUMPDEST PUSH1 0x60 DUP2 MSTORE PUSH0 PUSH2 0xC6E PUSH1 0x60 DUP4 ADD DUP7 PUSH2 0xBDE JUMP JUMPDEST PUSH1 0x20 DUP4 ADD SWAP5 SWAP1 SWAP5 MSTORE POP PUSH1 0x40 ADD MSTORE SWAP2 SWAP1 POP JUMP JUMPDEST DUP1 DUP3 ADD DUP1 DUP3 GT ISZERO PUSH2 0xC9F JUMPI PUSH4 0x4E487B71 PUSH1 0xE0 SHL PUSH0 MSTORE PUSH1 0x11 PUSH1 0x4 MSTORE PUSH1 0x24 PUSH0 REVERT JUMPDEST SWAP3 SWAP2 POP POP JUMP JUMPDEST PUSH4 0x4E487B71 PUSH1 0xE0 SHL PUSH0 MSTORE PUSH1 0x32 PUSH1 0x4 MSTORE PUSH1 0x24 PUSH0 REVERT INVALID LOG2 PUSH5 0x6970667358 0x22 SLT KECCAK256 0xBB DUP7 CALLCODE BASEFEE 0xB7 0xB7 PUSH12 0x2139DAF668AEB2A7ECA6FB1E RETURNDATASIZE DUP6 0xD3 0xB4 ORIGIN GASLIMIT 0x2A PUSH3 0x8A759 TIMESTAMP 0xCB PUSH5 0x736F6C6343 STOP ADDMOD NOT STOP CALLER "
        },
        "methodIdentifiers": {
          "agent()": "f5ff5c76",
          "buildMap(string,string,uint256,uint256)": "c940070a",
          "changeAgent(address)": "57f032e7",
          "claim()": "4e71d92d",
          "createSpace(string,string,uint8,uint256,uint256)": "04834957",
          "jcc()": "40df4745",
          "owner()": "8da5cb5b",
          "readyAt(string,string,uint256,uint256)": "51ca3d24",
          "renounceOwnership()": "715018a6",
          "rewards(address)": "0700037d",
          "settle(string,address,uint256,uint256,address[],uint256[])": "c662b0f3",
          "transferOwnership(address)": "f2fde38b",
          "upload(address,string,uint256)": "86586e4d"
        }
      }
    }
  }
}