{
  "_format": "hh-sol-artifact-1",
  "contractName": "JumpCrossV2",
  "sourceName": "contracts/JumpCrossV2.sol",
  "abi": [
    {
      "inputs": [
        {
          "internalType": "address",
          "name": "_jcc",
          "type": "address"
        }
      ],
      "stateMutability": "nonpayable",
      "type": "constructor"
    },
    {
      "inputs": [],
      "name": "InvalidAgent",
      "type": "error"
    },
    {
      "inputs": [],
      "name": "InvalidParam",
      "type": "error"
    },
    {
      "inputs": [],
      "name": "InvalidProtocolFee",
      "type": "error"
    },
    {
      "inputs": [
        {
          "internalType": "address",
          "name": "owner",
          "type": "address"
        }
      ],
      "name": "OwnableInvalidOwner",
      "type": "error"
    },
    {
      "inputs": [
        {
          "internalType": "address",
          "name": "account",
          "type": "address"
        }
      ],
      "name": "OwnableUnauthorizedAccount",
      "type": "error"
    },
    {
      "inputs": [],
      "name": "ReentrancyGuardReentrantCall",
      "type": "error"
    },
    {
      "anonymous": false,
      "inputs": [
        {
          "indexed": true,
          "internalType": "address",
          "name": "from",
          "type": "address"
        },
        {
          "indexed": true,
          "internalType": "string",
          "name": "level",
          "type": "string"
        },
        {
          "indexed": false,
          "internalType": "string",
          "name": "paymentId",
          "type": "string"
        },
        {
          "indexed": false,
          "internalType": "uint256",
          "name": "amount",
          "type": "uint256"
        },
        {
          "indexed": false,
          "internalType": "uint256",
          "name": "includeFee",
          "type": "uint256"
        }
      ],
      "name": "Build",
      "type": "event"
    },
    {
      "anonymous": false,
      "inputs": [
        {
          "indexed": true,
          "internalType": "address",
          "name": "from",
          "type": "address"
        },
        {
          "indexed": true,
          "internalType": "string",
          "name": "mapId",
          "type": "string"
        },
        {
          "indexed": false,
          "internalType": "string",
          "name": "paymentId",
          "type": "string"
        },
        {
          "indexed": false,
          "internalType": "uint8",
          "name": "mode",
          "type": "uint8"
        },
        {
          "indexed": false,
          "internalType": "uint256",
          "name": "amount",
          "type": "uint256"
        },
        {
          "indexed": false,
          "internalType": "uint256",
          "name": "includeFee",
          "type": "uint256"
        }
      ],
      "name": "Create",
      "type": "event"
    },
    {
      "anonymous": false,
      "inputs": [
        {
          "indexed": true,
          "internalType": "string",
          "name": "mapId",
          "type": "string"
        },
        {
          "indexed": true,
          "internalType": "address",
          "name": "winner",
          "type": "address"
        },
        {
          "indexed": false,
          "internalType": "uint256",
          "name": "distribution",
          "type": "uint256"
        }
      ],
      "name": "Distribute",
      "type": "event"
    },
    {
      "anonymous": false,
      "inputs": [
        {
          "indexed": true,
          "internalType": "address",
          "name": "previousOwner",
          "type": "address"
        },
        {
          "indexed": true,
          "internalType": "address",
          "name": "newOwner",
          "type": "address"
        }
      ],
      "name": "OwnershipTransferred",
      "type": "event"
    },
    {
      "anonymous": false,
      "inputs": [
        {
          "indexed": true,
          "internalType": "address",
          "name": "from",
          "type": "address"
        },
        {
          "indexed": true,
          "internalType": "string",
          "name": "mapId",
          "type": "string"
        },
        {
          "indexed": false,
          "internalType": "string",
          "name": "paymentId",
          "type": "string"
        },
        {
          "indexed": false,
          "internalType": "uint256",
          "name": "amount",
          "type": "uint256"
        },
        {
          "indexed": false,
          "internalType": "uint256",
          "name": "includeFee",
          "type": "uint256"
        }
      ],
      "name": "Ready",
      "type": "event"
    },
    {
      "anonymous": false,
      "inputs": [
        {
          "indexed": true,
          "internalType": "string",
          "name": "mapId",
          "type": "string"
        },
        {
          "indexed": true,
          "internalType": "address",
          "name": "Builder",
          "type": "address"
        },
        {
          "indexed": false,
          "internalType": "uint256",
          "name": "revenue",
          "type": "uint256"
        }
      ],
      "name": "Settle",
      "type": "event"
    },
    {
      "anonymous": false,
      "inputs": [
        {
          "indexed": true,
          "internalType": "string",
          "name": "mapId",
          "type": "string"
        },
        {
          "indexed": false,
          "internalType": "uint256",
          "name": "revenue",
          "type": "uint256"
        }
      ],
      "name": "Share",
      "type": "event"
    },
    {
      "anonymous": false,
      "inputs": [
        {
          "indexed": true,
          "internalType": "address",
          "name": "player",
          "type": "address"
        },
        {
          "indexed": true,
          "internalType": "string",
          "name": "mapId",
          "type": "string"
        },
        {
          "indexed": false,
          "internalType": "uint256",
          "name": "spent",
          "type": "uint256"
        }
      ],
      "name": "Upload",
      "type": "event"
    },
    {
      "inputs": [],
      "name": "agent",
      "outputs": [
        {
          "internalType": "address",
          "name": "",
          "type": "address"
        }
      ],
      "stateMutability": "view",
      "type": "function"
    },
    {
      "inputs": [
        {
          "internalType": "string",
          "name": "paymentId",
          "type": "string"
        },
        {
          "internalType": "string",
          "name": "level",
          "type": "string"
        },
        {
          "internalType": "uint256",
          "name": "amount",
          "type": "uint256"
        },
        {
          "internalType": "uint256",
          "name": "includeFee",
          "type": "uint256"
        }
      ],
      "name": "buildMap",
      "outputs": [],
      "stateMutability": "nonpayable",
      "type": "function"
    },
    {
      "inputs": [
        {
          "internalType": "address",
          "name": "_agent",
          "type": "address"
        }
      ],
      "name": "changeAgent",
      "outputs": [],
      "stateMutability": "nonpayable",
      "type": "function"
    },
    {
      "inputs": [],
      "name": "claim",
      "outputs": [],
      "stateMutability": "nonpayable",
      "type": "function"
    },
    {
      "inputs": [
        {
          "internalType": "string",
          "name": "paymentId",
          "type": "string"
        },
        {
          "internalType": "string",
          "name": "mapId",
          "type": "string"
        },
        {
          "internalType": "uint8",
          "name": "mode",
          "type": "uint8"
        },
        {
          "internalType": "uint256",
          "name": "amount",
          "type": "uint256"
        },
        {
          "internalType": "uint256",
          "name": "includeFee",
          "type": "uint256"
        }
      ],
      "name": "createSpace",
      "outputs": [],
      "stateMutability": "nonpayable",
      "type": "function"
    },
    {
      "inputs": [],
      "name": "jcc",
      "outputs": [
        {
          "internalType": "contract IERC20",
          "name": "",
          "type": "address"
        }
      ],
      "stateMutability": "view",
      "type": "function"
    },
    {
      "inputs": [],
      "name": "owner",
      "outputs": [
        {
          "internalType": "address",
          "name": "",
          "type": "address"
        }
      ],
      "stateMutability": "view",
      "type": "function"
    },
    {
      "inputs": [
        {
          "internalType": "string",
          "name": "paymentId",
          "type": "string"
        },
        {
          "internalType": "string",
          "name": "mapId",
          "type": "string"
        },
        {
          "internalType": "uint256",
          "name": "amount",
          "type": "uint256"
        },
        {
          "internalType": "uint256",
          "name": "includeFee",
          "type": "uint256"
        }
      ],
      "name": "readyAt",
      "outputs": [],
      "stateMutability": "nonpayable",
      "type": "function"
    },
    {
      "inputs": [],
      "name": "renounceOwnership",
      "outputs": [],
      "stateMutability": "nonpayable",
      "type": "function"
    },
    {
      "inputs": [
        {
          "internalType": "address",
          "name": "",
          "type": "address"
        }
      ],
      "name": "rewards",
      "outputs": [
        {
          "internalType": "uint256",
          "name": "",
          "type": "uint256"
        }
      ],
      "stateMutability": "view",
      "type": "function"
    },
    {
      "inputs": [
        {
          "internalType": "string",
          "name": "mapId",
          "type": "string"
        },
        {
          "internalType": "address",
          "name": "mapBuilder",
          "type": "address"
        },
        {
          "internalType": "uint256",
          "name": "builderReward",
          "type": "uint256"
        },
        {
          "internalType": "uint256",
          "name": "protocolRevenue",
          "type": "uint256"
        },
        {
          "internalType": "address[]",
          "name": "winners",
          "type": "address[]"
        },
        {
          "internalType": "uint256[]",
          "name": "distributions",
          "type": "uint256[]"
        }
      ],
      "name": "settle",
      "outputs": [],
      "stateMutability": "nonpayable",
      "type": "function"
    },
    {
      "inputs": [
        {
          "internalType": "address",
          "name": "newOwner",
          "type": "address"
        }
      ],
      "name": "transferOwnership",
      "outputs": [],
      "stateMutability": "nonpayable",
      "type": "function"
    },
    {
      "inputs": [
        {
          "internalType": "address",
          "name": "player",
          "type": "address"
        },
        {
          "internalType": "string",
          "name": "mapId",
          "type": "string"
        },
        {
          "internalType": "uint256",
          "name": "useTime",
          "type": "uint256"
        }
      ],
      "name": "upload",
      "outputs": [],
      "stateMutability": "nonpayable",
      "type": "function"
    }
  ],
  "bytecode": "0x608060405234801561000f575f80fd5b50604051610e21380380610e2183398101604081905261002e916100f8565b338061005357604051631e4fbdf760e01b81525f600482015260240160405180910390fd5b61005c816100a9565b5060018055600480546001600160a01b0319166001600160a01b0383161790556100833390565b600380546001600160a01b0319166001600160a01b039290921691909117905550610125565b5f80546001600160a01b038381166001600160a01b0319831681178455604051919092169283917f8be0079c531659141344cd1fd0a4f28419497f9722a3daafe3b4186f6b6457e09190a35050565b5f60208284031215610108575f80fd5b81516001600160a01b038116811461011e575f80fd5b9392505050565b610cef806101325f395ff3fe608060405234801561000f575f80fd5b50600436106100cb575f3560e01c8063715018a611610088578063c662b0f311610063578063c662b0f31461019a578063c940070a146101ad578063f2fde38b146101c0578063f5ff5c76146101d3575f80fd5b8063715018a61461016f57806386586e4d146101775780638da5cb5b1461018a575f80fd5b806304834957146100cf5780630700037d146100e457806340df4745146101165780634e71d92d1461014157806351ca3d241461014957806357f032e71461015c575b5f80fd5b6100e26100dd36600461094c565b6101e6565b005b6101036100f23660046109ee565b60026020525f908152604090205481565b6040519081526020015b60405180910390f35b600454610129906001600160a01b031681565b6040516001600160a01b03909116815260200161010d565b6100e2610257565b6100e2610157366004610a0e565b6102fc565b6100e261016a3660046109ee565b61036a565b6100e26103bb565b6100e2610185366004610a7d565b6103cc565b5f546001600160a01b0316610129565b6100e26101a8366004610b18565b61045e565b6100e26101bb366004610a0e565b610697565b6100e26101ce3660046109ee565b6106f6565b600354610129906001600160a01b031681565b336101f2818484610738565b846040516102009190610bc8565b6040518091039020816001600160a01b03167fa1fa20fdcdecabddebef92f6bee49b2d51a740724a89b1bf9f0cb0a0ebff9686888787876040516102479493929190610c0c565b60405180910390a3505050505050565b61025f61080a565b5f336001600160a01b038181165f81815260026020526040808220805492905560048054915163a9059cbb60e01b81529081019390935260248301829052939450929091169063a9059cbb906044016020604051808303815f875af11580156102ca573d5f803e3d5ffd5b505050506040513d601f19601f820116820180604052508101906102ee9190610c3d565b5050506102fa60018055565b565b33610308818484610738565b836040516103169190610bc8565b6040518091039020816001600160a01b03167f374dda0ce1e483ee0169fc2f88e2de06327666705203d6cf01dc6be85f04da2d87868660405161035b93929190610c5c565b60405180910390a35050505050565b610372610834565b6001600160a01b03811661039957604051633494a40d60e21b815260040160405180910390fd5b600380546001600160a01b0319166001600160a01b0392909216919091179055565b6103c3610834565b6102fa5f610860565b6003546001600160a01b0316336001600160a01b0316146104005760405163bebdc75760e01b815260040160405180910390fd5b8160405161040e9190610bc8565b6040518091039020836001600160a01b03167f34647a087c36357c4b77d3d7b4bc2b55d01c3ef8726dc75a70652d96e1510cc38360405161045191815260200190565b60405180910390a3505050565b6003546001600160a01b0316336001600160a01b0316146104925760405163bebdc75760e01b815260040160405180910390fd5b8281146104b257604051633494a40d60e21b815260040160405180910390fd5b6001600160a01b0387165f90815260026020526040812080548892906104d9908490610c80565b90915550506040516001600160a01b038816906104f7908a90610bc8565b604051908190038120888252907fd0e399ebeac2fc61c10361dcc10a35b1496bde69e6d498701837ddc3e92d84a29060200160405180910390a35f80546001600160a01b031680825260026020526040822080549192889261055a908490610c80565b909155505060405161056d908a90610bc8565b604051908190038120878252907f86c5a6cbfdc20f8b2fdd0ac4d794e7893a278650bcb5cbd07dcd3cb4013929e59060200160405180910390a25f5b8481101561068b575f8686838181106105c4576105c4610ca5565b90506020020160208101906105d991906109ee565b90505f8585848181106105ee576105ee610ca5565b9050602002013590508060025f846001600160a01b03166001600160a01b031681526020019081526020015f205f8282546106299190610c80565b90915550506040516001600160a01b03831690610647908e90610bc8565b604051908190038120838252907fc5fa900bb38ac6867166191ffd13e7b77d3c3603afe3d52f77b95693b065a7f09060200160405180910390a350506001016105a9565b50505050505050505050565b336106a3818484610738565b836040516106b19190610bc8565b6040518091039020816001600160a01b03167f67daa77442945a6a4400d2b1a71e13bb04bdab2f868e86a8d03c8007f2ef7ee987868660405161035b93929190610c5c565b6106fe610834565b6001600160a01b03811661072c57604051631e4fbdf760e01b81525f60048201526024015b60405180910390fd5b61073581610860565b50565b8181111561075957604051631752ff0760e31b815260040160405180910390fd5b600480546040516323b872dd60e01b81526001600160a01b0386811693820193909352306024820152604481018590529116906323b872dd906064016020604051808303815f875af11580156107b1573d5f803e3d5ffd5b505050506040513d601f19601f820116820180604052508101906107d59190610c3d565b505f80546001600160a01b03168082526002602052604082208054919284926107ff908490610c80565b909155505050505050565b60026001540361082d57604051633ee5aeb560e01b815260040160405180910390fd5b6002600155565b5f546001600160a01b031633146102fa5760405163118cdaa760e01b8152336004820152602401610723565b5f80546001600160a01b038381166001600160a01b0319831681178455604051919092169283917f8be0079c531659141344cd1fd0a4f28419497f9722a3daafe3b4186f6b6457e09190a35050565b634e487b7160e01b5f52604160045260245ffd5b5f82601f8301126108d2575f80fd5b813567ffffffffffffffff808211156108ed576108ed6108af565b604051601f8301601f19908116603f01168101908282118183101715610915576109156108af565b8160405283815286602085880101111561092d575f80fd5b836020870160208301375f602085830101528094505050505092915050565b5f805f805f60a08688031215610960575f80fd5b853567ffffffffffffffff80821115610977575f80fd5b61098389838a016108c3565b96506020880135915080821115610998575f80fd5b506109a5888289016108c3565b945050604086013560ff811681146109bb575f80fd5b94979396509394606081013594506080013592915050565b80356001600160a01b03811681146109e9575f80fd5b919050565b5f602082840312156109fe575f80fd5b610a07826109d3565b9392505050565b5f805f8060808587031215610a21575f80fd5b843567ffffffffffffffff80821115610a38575f80fd5b610a44888389016108c3565b95506020870135915080821115610a59575f80fd5b50610a66878288016108c3565b949794965050505060408301359260600135919050565b5f805f60608486031215610a8f575f80fd5b610a98846109d3565b9250602084013567ffffffffffffffff811115610ab3575f80fd5b610abf868287016108c3565b925050604084013590509250925092565b5f8083601f840112610ae0575f80fd5b50813567ffffffffffffffff811115610af7575f80fd5b6020830191508360208260051b8501011115610b11575f80fd5b9250929050565b5f805f805f805f8060c0898b031215610b2f575f80fd5b883567ffffffffffffffff80821115610b46575f80fd5b610b528c838d016108c3565b9950610b6060208c016109d3565b985060408b0135975060608b0135965060808b0135915080821115610b83575f80fd5b610b8f8c838d01610ad0565b909650945060a08b0135915080821115610ba7575f80fd5b50610bb48b828c01610ad0565b999c989b5096995094979396929594505050565b5f82518060208501845e5f920191825250919050565b5f81518084528060208401602086015e5f602082860101526020601f19601f83011685010191505092915050565b608081525f610c1e6080830187610bde565b60ff959095166020830152506040810192909252606090910152919050565b5f60208284031215610c4d575f80fd5b81518015158114610a07575f80fd5b606081525f610c6e6060830186610bde565b60208301949094525060400152919050565b80820180821115610c9f57634e487b7160e01b5f52601160045260245ffd5b92915050565b634e487b7160e01b5f52603260045260245ffdfea2646970667358221220bb86f248b7b76b2139daf668aeb2a7eca6fb1e3d85d3b432452a6208a75942cb64736f6c63430008190033",
  "linkReferences": {},
  "deployedLinkReferences": {}
}