{
  "_format": "hh-sol-artifact-1",
  "contractName": "JumpCrossV1",
  "sourceName": "contracts/JumpCrossV1.sol",
  "abi": [
    {
      "inputs": [
        {
          "internalType": "address",
          "name": "_jcc",
          "type": "address"
        }
      ],
      "stateMutability": "nonpayable",
      "type": "constructor"
    },
    {
      "inputs": [],
      "name": "InvalidParam",
      "type": "error"
    },
    {
      "inputs": [],
      "name": "InvalidProtocolFee",
      "type": "error"
    },
    {
      "inputs": [
        {
          "internalType": "address",
          "name": "owner",
          "type": "address"
        }
      ],
      "name": "OwnableInvalidOwner",
      "type": "error"
    },
    {
      "inputs": [
        {
          "internalType": "address",
          "name": "account",
          "type": "address"
        }
      ],
      "name": "OwnableUnauthorizedAccount",
      "type": "error"
    },
    {
      "inputs": [],
      "name": "ReentrancyGuardReentrantCall",
      "type": "error"
    },
    {
      "anonymous": false,
      "inputs": [
        {
          "indexed": true,
          "internalType": "string",
          "name": "paymentId",
          "type": "string"
        },
        {
          "indexed": true,
          "internalType": "address",
          "name": "from",
          "type": "address"
        },
        {
          "indexed": true,
          "internalType": "string",
          "name": "level",
          "type": "string"
        },
        {
          "indexed": false,
          "internalType": "uint256",
          "name": "amount",
          "type": "uint256"
        },
        {
          "indexed": false,
          "internalType": "uint256",
          "name": "includeFee",
          "type": "uint256"
        }
      ],
      "name": "Build",
      "type": "event"
    },
    {
      "anonymous": false,
      "inputs": [
        {
          "indexed": true,
          "internalType": "string",
          "name": "paymentId",
          "type": "string"
        },
        {
          "indexed": true,
          "internalType": "address",
          "name": "from",
          "type": "address"
        },
        {
          "indexed": true,
          "internalType": "string",
          "name": "mapId",
          "type": "string"
        },
        {
          "indexed": false,
          "internalType": "uint8",
          "name": "mode",
          "type": "uint8"
        },
        {
          "indexed": false,
          "internalType": "uint256",
          "name": "amount",
          "type": "uint256"
        },
        {
          "indexed": false,
          "internalType": "uint256",
          "name": "includeFee",
          "type": "uint256"
        }
      ],
      "name": "Create",
      "type": "event"
    },
    {
      "anonymous": false,
      "inputs": [
        {
          "indexed": true,
          "internalType": "string",
          "name": "mapId",
          "type": "string"
        },
        {
          "indexed": true,
          "internalType": "address",
          "name": "winner",
          "type": "address"
        },
        {
          "indexed": false,
          "internalType": "uint256",
          "name": "distribution",
          "type": "uint256"
        }
      ],
      "name": "Distribute",
      "type": "event"
    },
    {
      "anonymous": false,
      "inputs": [
        {
          "indexed": true,
          "internalType": "address",
          "name": "previousOwner",
          "type": "address"
        },
        {
          "indexed": true,
          "internalType": "address",
          "name": "newOwner",
          "type": "address"
        }
      ],
      "name": "OwnershipTransferred",
      "type": "event"
    },
    {
      "anonymous": false,
      "inputs": [
        {
          "indexed": true,
          "internalType": "string",
          "name": "paymentId",
          "type": "string"
        },
        {
          "indexed": true,
          "internalType": "address",
          "name": "from",
          "type": "address"
        },
        {
          "indexed": true,
          "internalType": "string",
          "name": "mapId",
          "type": "string"
        },
        {
          "indexed": false,
          "internalType": "uint256",
          "name": "amount",
          "type": "uint256"
        },
        {
          "indexed": false,
          "internalType": "uint256",
          "name": "includeFee",
          "type": "uint256"
        }
      ],
      "name": "Ready",
      "type": "event"
    },
    {
      "anonymous": false,
      "inputs": [
        {
          "indexed": true,
          "internalType": "string",
          "name": "mapId",
          "type": "string"
        },
        {
          "indexed": true,
          "internalType": "address",
          "name": "Builder",
          "type": "address"
        },
        {
          "indexed": false,
          "internalType": "uint256",
          "name": "revenue",
          "type": "uint256"
        }
      ],
      "name": "Settle",
      "type": "event"
    },
    {
      "anonymous": false,
      "inputs": [
        {
          "indexed": true,
          "internalType": "string",
          "name": "mapId",
          "type": "string"
        },
        {
          "indexed": false,
          "internalType": "uint256",
          "name": "revenue",
          "type": "uint256"
        }
      ],
      "name": "Share",
      "type": "event"
    },
    {
      "anonymous": false,
      "inputs": [
        {
          "indexed": true,
          "internalType": "address",
          "name": "player",
          "type": "address"
        },
        {
          "indexed": true,
          "internalType": "string",
          "name": "mapId",
          "type": "string"
        },
        {
          "indexed": false,
          "internalType": "uint256",
          "name": "spent",
          "type": "uint256"
        }
      ],
      "name": "Upload",
      "type": "event"
    },
    {
      "inputs": [
        {
          "internalType": "string",
          "name": "paymentId",
          "type": "string"
        },
        {
          "internalType": "string",
          "name": "level",
          "type": "string"
        },
        {
          "internalType": "uint256",
          "name": "amount",
          "type": "uint256"
        },
        {
          "internalType": "uint256",
          "name": "includeFee",
          "type": "uint256"
        }
      ],
      "name": "buildMap",
      "outputs": [],
      "stateMutability": "nonpayable",
      "type": "function"
    },
    {
      "inputs": [],
      "name": "claim",
      "outputs": [],
      "stateMutability": "nonpayable",
      "type": "function"
    },
    {
      "inputs": [
        {
          "internalType": "string",
          "name": "paymentId",
          "type": "string"
        },
        {
          "internalType": "string",
          "name": "mapId",
          "type": "string"
        },
        {
          "internalType": "uint8",
          "name": "mode",
          "type": "uint8"
        },
        {
          "internalType": "uint256",
          "name": "amount",
          "type": "uint256"
        },
        {
          "internalType": "uint256",
          "name": "includeFee",
          "type": "uint256"
        }
      ],
      "name": "createSpace",
      "outputs": [],
      "stateMutability": "nonpayable",
      "type": "function"
    },
    {
      "inputs": [],
      "name": "jcc",
      "outputs": [
        {
          "internalType": "contract IERC20",
          "name": "",
          "type": "address"
        }
      ],
      "stateMutability": "view",
      "type": "function"
    },
    {
      "inputs": [],
      "name": "owner",
      "outputs": [
        {
          "internalType": "address",
          "name": "",
          "type": "address"
        }
      ],
      "stateMutability": "view",
      "type": "function"
    },
    {
      "inputs": [
        {
          "internalType": "string",
          "name": "paymentId",
          "type": "string"
        },
        {
          "internalType": "string",
          "name": "mapId",
          "type": "string"
        },
        {
          "internalType": "uint256",
          "name": "amount",
          "type": "uint256"
        },
        {
          "internalType": "uint256",
          "name": "includeFee",
          "type": "uint256"
        }
      ],
      "name": "readyAt",
      "outputs": [],
      "stateMutability": "nonpayable",
      "type": "function"
    },
    {
      "inputs": [],
      "name": "renounceOwnership",
      "outputs": [],
      "stateMutability": "nonpayable",
      "type": "function"
    },
    {
      "inputs": [
        {
          "internalType": "address",
          "name": "",
          "type": "address"
        }
      ],
      "name": "rewards",
      "outputs": [
        {
          "internalType": "uint256",
          "name": "",
          "type": "uint256"
        }
      ],
      "stateMutability": "view",
      "type": "function"
    },
    {
      "inputs": [
        {
          "internalType": "string",
          "name": "mapId",
          "type": "string"
        },
        {
          "internalType": "address",
          "name": "mapBuilder",
          "type": "address"
        },
        {
          "internalType": "uint256",
          "name": "builderReward",
          "type": "uint256"
        },
        {
          "internalType": "uint256",
          "name": "protocolRevenue",
          "type": "uint256"
        },
        {
          "internalType": "address[]",
          "name": "winners",
          "type": "address[]"
        },
        {
          "internalType": "uint256[]",
          "name": "distributions",
          "type": "uint256[]"
        }
      ],
      "name": "settle",
      "outputs": [],
      "stateMutability": "nonpayable",
      "type": "function"
    },
    {
      "inputs": [
        {
          "internalType": "address",
          "name": "newOwner",
          "type": "address"
        }
      ],
      "name": "transferOwnership",
      "outputs": [],
      "stateMutability": "nonpayable",
      "type": "function"
    },
    {
      "inputs": [
        {
          "internalType": "address",
          "name": "player",
          "type": "address"
        },
        {
          "internalType": "string",
          "name": "mapId",
          "type": "string"
        },
        {
          "internalType": "uint256",
          "name": "useTime",
          "type": "uint256"
        }
      ],
      "name": "upload",
      "outputs": [],
      "stateMutability": "nonpayable",
      "type": "function"
    }
  ],
  "bytecode": "0x608060405234801561000f575f80fd5b50604051610ccd380380610ccd83398101604081905261002e916100d5565b338061005357604051631e4fbdf760e01b81525f600482015260240160405180910390fd5b61005c81610086565b5060018055600380546001600160a01b0319166001600160a01b0392909216919091179055610102565b5f80546001600160a01b038381166001600160a01b0319831681178455604051919092169283917f8be0079c531659141344cd1fd0a4f28419497f9722a3daafe3b4186f6b6457e09190a35050565b5f602082840312156100e5575f80fd5b81516001600160a01b03811681146100fb575f80fd5b9392505050565b610bbe8061010f5f395ff3fe608060405234801561000f575f80fd5b50600436106100a6575f3560e01c8063715018a61161006e578063715018a61461013757806386586e4d1461013f5780638da5cb5b14610152578063c662b0f314610162578063c940070a14610175578063f2fde38b14610188575f80fd5b806304834957146100aa5780630700037d146100bf57806340df4745146100f15780634e71d92d1461011c57806351ca3d2414610124575b5f80fd5b6100bd6100b836600461089e565b61019b565b005b6100de6100cd366004610940565b60026020525f908152604090205481565b6040519081526020015b60405180910390f35b600354610104906001600160a01b031681565b6040516001600160a01b0390911681526020016100e8565b6100bd610228565b6100bd610132366004610960565b6102cd565b6100bd61034f565b6100bd61014d3660046109cf565b610360565b5f546001600160a01b0316610104565b6100bd610170366004610a6a565b6103c6565b6100bd610183366004610960565b6105d3565b6100bd610196366004610940565b61064a565b336101a781848461068c565b846040516101b59190610b1a565b6040518091039020816001600160a01b0316876040516101d59190610b1a565b6040805191829003822060ff8916835260208301889052908201869052907f98019f15591e504c835535ad5922386a0a52f73485d731e60646019a8ab73b1d9060600160405180910390a4505050505050565b61023061075c565b5f336001600160a01b038181165f818152600260205260408082208054929055600354905163a9059cbb60e01b8152600481019390935260248301829052939450929091169063a9059cbb906044016020604051808303815f875af115801561029b573d5f803e3d5ffd5b505050506040513d601f19601f820116820180604052508101906102bf9190610b30565b5050506102cb60018055565b565b336102d981848461068c565b836040516102e79190610b1a565b6040518091039020816001600160a01b0316866040516103079190610b1a565b6040805191829003822087835260208301879052917f8a6d11f27150f9973d6e2e11e8e192fd02e8980a2275d5ee25f72397b0085a1e91015b60405180910390a45050505050565b610357610786565b6102cb5f6107b2565b610368610786565b816040516103769190610b1a565b6040518091039020836001600160a01b03167f34647a087c36357c4b77d3d7b4bc2b55d01c3ef8726dc75a70652d96e1510cc3836040516103b991815260200190565b60405180910390a3505050565b6103ce610786565b8281146103ee57604051633494a40d60e21b815260040160405180910390fd5b6001600160a01b0387165f9081526002602052604081208054889290610415908490610b4f565b90915550506040516001600160a01b03881690610433908a90610b1a565b604051908190038120888252907fd0e399ebeac2fc61c10361dcc10a35b1496bde69e6d498701837ddc3e92d84a29060200160405180910390a35f80546001600160a01b0316808252600260205260408220805491928892610496908490610b4f565b90915550506040516104a9908a90610b1a565b604051908190038120878252907f86c5a6cbfdc20f8b2fdd0ac4d794e7893a278650bcb5cbd07dcd3cb4013929e59060200160405180910390a25f5b848110156105c7575f86868381811061050057610500610b74565b90506020020160208101906105159190610940565b90505f85858481811061052a5761052a610b74565b9050602002013590508060025f846001600160a01b03166001600160a01b031681526020019081526020015f205f8282546105659190610b4f565b90915550506040516001600160a01b03831690610583908e90610b1a565b604051908190038120838252907fc5fa900bb38ac6867166191ffd13e7b77d3c3603afe3d52f77b95693b065a7f09060200160405180910390a350506001016104e5565b50505050505050505050565b336105df81848461068c565b836040516105ed9190610b1a565b6040518091039020816001600160a01b03168660405161060d9190610b1a565b6040805191829003822087835260208301879052917fa8e0dd9f27a69b5b8f07d3f724c17c267a8c6a2f7487982892fcd21f7ba66c5f9101610340565b610652610786565b6001600160a01b03811661068057604051631e4fbdf760e01b81525f60048201526024015b60405180910390fd5b610689816107b2565b50565b818111156106ad57604051631752ff0760e31b815260040160405180910390fd5b6003546040516323b872dd60e01b81526001600160a01b03858116600483015230602483015260448201859052909116906323b872dd906064016020604051808303815f875af1158015610703573d5f803e3d5ffd5b505050506040513d601f19601f820116820180604052508101906107279190610b30565b505f80546001600160a01b0316808252600260205260408220805491928492610751908490610b4f565b909155505050505050565b60026001540361077f57604051633ee5aeb560e01b815260040160405180910390fd5b6002600155565b5f546001600160a01b031633146102cb5760405163118cdaa760e01b8152336004820152602401610677565b5f80546001600160a01b038381166001600160a01b0319831681178455604051919092169283917f8be0079c531659141344cd1fd0a4f28419497f9722a3daafe3b4186f6b6457e09190a35050565b634e487b7160e01b5f52604160045260245ffd5b5f82601f830112610824575f80fd5b813567ffffffffffffffff8082111561083f5761083f610801565b604051601f8301601f19908116603f0116810190828211818310171561086757610867610801565b8160405283815286602085880101111561087f575f80fd5b836020870160208301375f602085830101528094505050505092915050565b5f805f805f60a086880312156108b2575f80fd5b853567ffffffffffffffff808211156108c9575f80fd5b6108d589838a01610815565b965060208801359150808211156108ea575f80fd5b506108f788828901610815565b945050604086013560ff8116811461090d575f80fd5b94979396509394606081013594506080013592915050565b80356001600160a01b038116811461093b575f80fd5b919050565b5f60208284031215610950575f80fd5b61095982610925565b9392505050565b5f805f8060808587031215610973575f80fd5b843567ffffffffffffffff8082111561098a575f80fd5b61099688838901610815565b955060208701359150808211156109ab575f80fd5b506109b887828801610815565b949794965050505060408301359260600135919050565b5f805f606084860312156109e1575f80fd5b6109ea84610925565b9250602084013567ffffffffffffffff811115610a05575f80fd5b610a1186828701610815565b925050604084013590509250925092565b5f8083601f840112610a32575f80fd5b50813567ffffffffffffffff811115610a49575f80fd5b6020830191508360208260051b8501011115610a63575f80fd5b9250929050565b5f805f805f805f8060c0898b031215610a81575f80fd5b883567ffffffffffffffff80821115610a98575f80fd5b610aa48c838d01610815565b9950610ab260208c01610925565b985060408b0135975060608b0135965060808b0135915080821115610ad5575f80fd5b610ae18c838d01610a22565b909650945060a08b0135915080821115610af9575f80fd5b50610b068b828c01610a22565b999c989b5096995094979396929594505050565b5f82518060208501845e5f920191825250919050565b5f60208284031215610b40575f80fd5b81518015158114610959575f80fd5b80820180821115610b6e57634e487b7160e01b5f52601160045260245ffd5b92915050565b634e487b7160e01b5f52603260045260245ffdfea26469706673582212204348387f0b2f899eb59c3a4335bcd72ae774e98209b1a307e085b4a1b9e9464664736f6c63430008190033",
  "linkReferences": {},
  "deployedLinkReferences": {}
}